{
  "contractName": "InsuranceClaim",
  "abi": [
    {
      "inputs": [],
      "stateMutability": "nonpayable",
      "type": "constructor"
    },
    {
      "anonymous": false,
      "inputs": [
        {
          "indexed": true,
          "internalType": "uint256",
          "name": "claimId",
          "type": "uint256"
        },
        {
          "indexed": false,
          "internalType": "string",
          "name": "status",
          "type": "string"
        },
        {
          "indexed": true,
          "internalType": "address",
          "name": "processedBy",
          "type": "address"
        },
        {
          "indexed": false,
          "internalType": "uint256",
          "name": "timestamp",
          "type": "uint256"
        }
      ],
      "name": "ClaimProcessed",
      "type": "event"
    },
    {
      "anonymous": false,
      "inputs": [
        {
          "indexed": true,
          "internalType": "uint256",
          "name": "claimId",
          "type": "uint256"
        },
        {
          "indexed": false,
          "internalType": "string",
          "name": "claimNumber",
          "type": "string"
        },
        {
          "indexed": true,
          "internalType": "uint256",
          "name": "policyId",
          "type": "uint256"
        },
        {
          "indexed": true,
          "internalType": "address",
          "name": "submittedBy",
          "type": "address"
        },
        {
          "indexed": false,
          "internalType": "uint256",
          "name": "amount",
          "type": "uint256"
        },
        {
          "indexed": false,
          "internalType": "uint256",
          "name": "fraudScore",
          "type": "uint256"
        },
        {
          "indexed": false,
          "internalType": "uint256",
          "name": "timestamp",
          "type": "uint256"
        }
      ],
      "name": "ClaimSubmitted",
      "type": "event"
    },
    {
      "anonymous": false,
      "inputs": [
        {
          "indexed": true,
          "internalType": "uint256",
          "name": "roundNumber",
          "type": "uint256"
        },
        {
          "indexed": false,
          "internalType": "uint256",
          "name": "globalAccuracy",
          "type": "uint256"
        },
        {
          "indexed": true,
          "internalType": "address",
          "name": "triggeredBy",
          "type": "address"
        },
        {
          "indexed": false,
          "internalType": "uint256",
          "name": "timestamp",
          "type": "uint256"
        }
      ],
      "name": "FLTrainingCompleted",
      "type": "event"
    },
    {
      "anonymous": false,
      "inputs": [
        {
          "indexed": true,
          "internalType": "string",
          "name": "did",
          "type": "string"
        },
        {
          "indexed": true,
          "internalType": "address",
          "name": "owner",
          "type": "address"
        },
        {
          "indexed": false,
          "internalType": "string",
          "name": "name",
          "type": "string"
        },
        {
          "indexed": false,
          "internalType": "uint256",
          "name": "timestamp",
          "type": "uint256"
        }
      ],
      "name": "IdentityCreated",
      "type": "event"
    },
    {
      "anonymous": false,
      "inputs": [
        {
          "indexed": true,
          "internalType": "string",
          "name": "did",
          "type": "string"
        },
        {
          "indexed": true,
          "internalType": "address",
          "name": "verifier",
          "type": "address"
        },
        {
          "indexed": false,
          "internalType": "uint256",
          "name": "timestamp",
          "type": "uint256"
        }
      ],
      "name": "IdentityVerified",
      "type": "event"
    },
    {
      "anonymous": false,
      "inputs": [
        {
          "indexed": true,
          "internalType": "uint256",
          "name": "policyId",
          "type": "uint256"
        },
        {
          "indexed": false,
          "internalType": "string",
          "name": "policyNumber",
          "type": "string"
        },
        {
          "indexed": false,
          "internalType": "string",
          "name": "did",
          "type": "string"
        },
        {
          "indexed": true,
          "internalType": "address",
          "name": "createdBy",
          "type": "address"
        },
        {
          "indexed": false,
          "internalType": "uint256",
          "name": "coverageAmount",
          "type": "uint256"
        },
        {
          "indexed": false,
          "internalType": "uint256",
          "name": "timestamp",
          "type": "uint256"
        }
      ],
      "name": "PolicyCreated",
      "type": "event"
    },
    {
      "anonymous": false,
      "inputs": [
        {
          "indexed": true,
          "internalType": "address",
          "name": "userAddress",
          "type": "address"
        },
        {
          "indexed": false,
          "internalType": "string",
          "name": "username",
          "type": "string"
        },
        {
          "indexed": false,
          "internalType": "string",
          "name": "role",
          "type": "string"
        },
        {
          "indexed": false,
          "internalType": "string",
          "name": "name",
          "type": "string"
        },
        {
          "indexed": false,
          "internalType": "uint256",
          "name": "timestamp",
          "type": "uint256"
        }
      ],
      "name": "UserRegistered",
      "type": "event"
    },
    {
      "inputs": [],
      "name": "admin",
      "outputs": [
        {
          "internalType": "address",
          "name": "",
          "type": "address"
        }
      ],
      "stateMutability": "view",
      "type": "function",
      "constant": true
    },
    {
      "inputs": [
        {
          "internalType": "uint256",
          "name": "",
          "type": "uint256"
        }
      ],
      "name": "allDIDs",
      "outputs": [
        {
          "internalType": "string",
          "name": "",
          "type": "string"
        }
      ],
      "stateMutability": "view",
      "type": "function",
      "constant": true
    },
    {
      "inputs": [],
      "name": "claimCounter",
      "outputs": [
        {
          "internalType": "uint256",
          "name": "",
          "type": "uint256"
        }
      ],
      "stateMutability": "view",
      "type": "function",
      "constant": true
    },
    {
      "inputs": [
        {
          "internalType": "string",
          "name": "",
          "type": "string"
        }
      ],
      "name": "claimNumberToId",
      "outputs": [
        {
          "internalType": "uint256",
          "name": "",
          "type": "uint256"
        }
      ],
      "stateMutability": "view",
      "type": "function",
      "constant": true
    },
    {
      "inputs": [
        {
          "internalType": "uint256",
          "name": "",
          "type": "uint256"
        }
      ],
      "name": "claims",
      "outputs": [
        {
          "internalType": "uint256",
          "name": "id",
          "type": "uint256"
        },
        {
          "internalType": "string",
          "name": "claimNumber",
          "type": "string"
        },
        {
          "internalType": "uint256",
          "name": "policyId",
          "type": "uint256"
        },
        {
          "internalType": "string",
          "name": "policyNumber",
          "type": "string"
        },
        {
          "internalType": "string",
          "name": "did",
          "type": "string"
        },
        {
          "internalType": "string",
          "name": "patientName",
          "type": "string"
        },
        {
          "internalType": "string",
          "name": "claimType",
          "type": "string"
        },
        {
          "internalType": "uint256",
          "name": "amount",
          "type": "uint256"
        },
        {
          "internalType": "string",
          "name": "description",
          "type": "string"
        },
        {
          "internalType": "string",
          "name": "hospitalName",
          "type": "string"
        },
        {
          "internalType": "string",
          "name": "diagnosis",
          "type": "string"
        },
        {
          "internalType": "address",
          "name": "submittedBy",
          "type": "address"
        },
        {
          "internalType": "uint256",
          "name": "submittedAt",
          "type": "uint256"
        },
        {
          "internalType": "string",
          "name": "status",
          "type": "string"
        },
        {
          "internalType": "uint256",
          "name": "fraudScore",
          "type": "uint256"
        },
        {
          "internalType": "bool",
          "name": "isFraudulent",
          "type": "bool"
        },
        {
          "internalType": "string",
          "name": "aiDecision",
          "type": "string"
        },
        {
          "internalType": "string",
          "name": "mlFraudType",
          "type": "string"
        },
        {
          "internalType": "uint256",
          "name": "mlConfidence",
          "type": "uint256"
        },
        {
          "internalType": "uint256",
          "name": "processedAt",
          "type": "uint256"
        },
        {
          "internalType": "address",
          "name": "processedBy",
          "type": "address"
        },
        {
          "internalType": "bool",
          "name": "exists",
          "type": "bool"
        }
      ],
      "stateMutability": "view",
      "type": "function",
      "constant": true
    },
    {
      "inputs": [
        {
          "internalType": "string",
          "name": "",
          "type": "string"
        }
      ],
      "name": "identities",
      "outputs": [
        {
          "internalType": "string",
          "name": "did",
          "type": "string"
        },
        {
          "internalType": "string",
          "name": "name",
          "type": "string"
        },
        {
          "internalType": "string",
          "name": "email",
          "type": "string"
        },
        {
          "internalType": "string",
          "name": "idNumber",
          "type": "string"
        },
        {
          "internalType": "string",
          "name": "dateOfBirth",
          "type": "string"
        },
        {
          "internalType": "address",
          "name": "owner",
          "type": "address"
        },
        {
          "internalType": "bool",
          "name": "isVerified",
          "type": "bool"
        },
        {
          "internalType": "uint256",
          "name": "createdAt",
          "type": "uint256"
        },
        {
          "internalType": "bool",
          "name": "exists",
          "type": "bool"
        }
      ],
      "stateMutability": "view",
      "type": "function",
      "constant": true
    },
    {
      "inputs": [
        {
          "internalType": "address",
          "name": "",
          "type": "address"
        }
      ],
      "name": "ownerToDID",
      "outputs": [
        {
          "internalType": "string",
          "name": "",
          "type": "string"
        }
      ],
      "stateMutability": "view",
      "type": "function",
      "constant": true
    },
    {
      "inputs": [
        {
          "internalType": "uint256",
          "name": "",
          "type": "uint256"
        }
      ],
      "name": "policies",
      "outputs": [
        {
          "internalType": "uint256",
          "name": "id",
          "type": "uint256"
        },
        {
          "internalType": "string",
          "name": "policyNumber",
          "type": "string"
        },
        {
          "internalType": "string",
          "name": "did",
          "type": "string"
        },
        {
          "internalType": "string",
          "name": "patientName",
          "type": "string"
        },
        {
          "internalType": "string",
          "name": "policyType",
          "type": "string"
        },
        {
          "internalType": "uint256",
          "name": "coverageAmount",
          "type": "uint256"
        },
        {
          "internalType": "uint256",
          "name": "premium",
          "type": "uint256"
        },
        {
          "internalType": "uint256",
          "name": "durationMonths",
          "type": "uint256"
        },
        {
          "internalType": "address",
          "name": "createdBy",
          "type": "address"
        },
        {
          "internalType": "string",
          "name": "insuranceCompany",
          "type": "string"
        },
        {
          "internalType": "string",
          "name": "status",
          "type": "string"
        },
        {
          "internalType": "uint256",
          "name": "createdAt",
          "type": "uint256"
        },
        {
          "internalType": "bool",
          "name": "exists",
          "type": "bool"
        }
      ],
      "stateMutability": "view",
      "type": "function",
      "constant": true
    },
    {
      "inputs": [],
      "name": "policyCounter",
      "outputs": [
        {
          "internalType": "uint256",
          "name": "",
          "type": "uint256"
        }
      ],
      "stateMutability": "view",
      "type": "function",
      "constant": true
    },
    {
      "inputs": [
        {
          "internalType": "string",
          "name": "",
          "type": "string"
        }
      ],
      "name": "policyNumberToId",
      "outputs": [
        {
          "internalType": "uint256",
          "name": "",
          "type": "uint256"
        }
      ],
      "stateMutability": "view",
      "type": "function",
      "constant": true
    },
    {
      "inputs": [],
      "name": "trainingRoundCounter",
      "outputs": [
        {
          "internalType": "uint256",
          "name": "",
          "type": "uint256"
        }
      ],
      "stateMutability": "view",
      "type": "function",
      "constant": true
    },
    {
      "inputs": [
        {
          "internalType": "uint256",
          "name": "",
          "type": "uint256"
        }
      ],
      "name": "trainingRounds",
      "outputs": [
        {
          "internalType": "uint256",
          "name": "roundNumber",
          "type": "uint256"
        },
        {
          "internalType": "uint256",
          "name": "globalAccuracy",
          "type": "uint256"
        },
        {
          "internalType": "uint256",
          "name": "nodesParticipated",
          "type": "uint256"
        },
        {
          "internalType": "uint256",
          "name": "totalSamples",
          "type": "uint256"
        },
        {
          "internalType": "uint256",
          "name": "timestamp",
          "type": "uint256"
        },
        {
          "internalType": "address",
          "name": "triggeredBy",
          "type": "address"
        }
      ],
      "stateMutability": "view",
      "type": "function",
      "constant": true
    },
    {
      "inputs": [
        {
          "internalType": "uint256",
          "name": "",
          "type": "uint256"
        }
      ],
      "name": "userAddresses",
      "outputs": [
        {
          "internalType": "address",
          "name": "",
          "type": "address"
        }
      ],
      "stateMutability": "view",
      "type": "function",
      "constant": true
    },
    {
      "inputs": [
        {
          "internalType": "string",
          "name": "",
          "type": "string"
        }
      ],
      "name": "usernameToAddress",
      "outputs": [
        {
          "internalType": "address",
          "name": "",
          "type": "address"
        }
      ],
      "stateMutability": "view",
      "type": "function",
      "constant": true
    },
    {
      "inputs": [
        {
          "internalType": "address",
          "name": "",
          "type": "address"
        }
      ],
      "name": "users",
      "outputs": [
        {
          "internalType": "string",
          "name": "username",
          "type": "string"
        },
        {
          "internalType": "string",
          "name": "role",
          "type": "string"
        },
        {
          "internalType": "string",
          "name": "name",
          "type": "string"
        },
        {
          "internalType": "address",
          "name": "walletAddress",
          "type": "address"
        },
        {
          "internalType": "uint256",
          "name": "registeredAt",
          "type": "uint256"
        },
        {
          "internalType": "bool",
          "name": "exists",
          "type": "bool"
        }
      ],
      "stateMutability": "view",
      "type": "function",
      "constant": true
    },
    {
      "inputs": [
        {
          "internalType": "string",
          "name": "_username",
          "type": "string"
        },
        {
          "internalType": "string",
          "name": "_role",
          "type": "string"
        },
        {
          "internalType": "string",
          "name": "_name",
          "type": "string"
        }
      ],
      "name": "registerUser",
      "outputs": [],
      "stateMutability": "nonpayable",
      "type": "function"
    },
    {
      "inputs": [
        {
          "internalType": "address",
          "name": "_address",
          "type": "address"
        }
      ],
      "name": "getUser",
      "outputs": [
        {
          "internalType": "string",
          "name": "username",
          "type": "string"
        },
        {
          "internalType": "string",
          "name": "role",
          "type": "string"
        },
        {
          "internalType": "string",
          "name": "name",
          "type": "string"
        },
        {
          "internalType": "address",
          "name": "walletAddress",
          "type": "address"
        },
        {
          "internalType": "uint256",
          "name": "registeredAt",
          "type": "uint256"
        }
      ],
      "stateMutability": "view",
      "type": "function",
      "constant": true
    },
    {
      "inputs": [
        {
          "internalType": "string",
          "name": "_username",
          "type": "string"
        }
      ],
      "name": "getUserByUsername",
      "outputs": [
        {
          "internalType": "address",
          "name": "walletAddress",
          "type": "address"
        },
        {
          "internalType": "string",
          "name": "role",
          "type": "string"
        },
        {
          "internalType": "string",
          "name": "name",
          "type": "string"
        }
      ],
      "stateMutability": "view",
      "type": "function",
      "constant": true
    },
    {
      "inputs": [],
      "name": "getAllUsers",
      "outputs": [
        {
          "internalType": "address[]",
          "name": "",
          "type": "address[]"
        }
      ],
      "stateMutability": "view",
      "type": "function",
      "constant": true
    },
    {
      "inputs": [
        {
          "internalType": "string",
          "name": "_did",
          "type": "string"
        },
        {
          "internalType": "string",
          "name": "_name",
          "type": "string"
        },
        {
          "internalType": "string",
          "name": "_email",
          "type": "string"
        },
        {
          "internalType": "string",
          "name": "_idNumber",
          "type": "string"
        },
        {
          "internalType": "string",
          "name": "_dateOfBirth",
          "type": "string"
        }
      ],
      "name": "createIdentity",
      "outputs": [],
      "stateMutability": "nonpayable",
      "type": "function"
    },
    {
      "inputs": [
        {
          "internalType": "string",
          "name": "_did",
          "type": "string"
        }
      ],
      "name": "verifyIdentity",
      "outputs": [
        {
          "internalType": "bool",
          "name": "",
          "type": "bool"
        }
      ],
      "stateMutability": "view",
      "type": "function",
      "constant": true
    },
    {
      "inputs": [
        {
          "internalType": "string",
          "name": "_did",
          "type": "string"
        }
      ],
      "name": "getIdentity",
      "outputs": [
        {
          "internalType": "string",
          "name": "name",
          "type": "string"
        },
        {
          "internalType": "string",
          "name": "email",
          "type": "string"
        },
        {
          "internalType": "address",
          "name": "owner",
          "type": "address"
        },
        {
          "internalType": "bool",
          "name": "isVerified",
          "type": "bool"
        },
        {
          "internalType": "uint256",
          "name": "createdAt",
          "type": "uint256"
        }
      ],
      "stateMutability": "view",
      "type": "function",
      "constant": true
    },
    {
      "inputs": [],
      "name": "getMyIdentity",
      "outputs": [
        {
          "internalType": "string",
          "name": "did",
          "type": "string"
        },
        {
          "internalType": "string",
          "name": "name",
          "type": "string"
        },
        {
          "internalType": "string",
          "name": "email",
          "type": "string"
        },
        {
          "internalType": "string",
          "name": "idNumber",
          "type": "string"
        },
        {
          "internalType": "string",
          "name": "dateOfBirth",
          "type": "string"
        }
      ],
      "stateMutability": "view",
      "type": "function",
      "constant": true
    },
    {
      "inputs": [],
      "name": "getAllIdentities",
      "outputs": [
        {
          "internalType": "string[]",
          "name": "",
          "type": "string[]"
        }
      ],
      "stateMutability": "view",
      "type": "function",
      "constant": true
    },
    {
      "inputs": [
        {
          "internalType": "string",
          "name": "_policyNumber",
          "type": "string"
        },
        {
          "internalType": "string",
          "name": "_did",
          "type": "string"
        },
        {
          "internalType": "string",
          "name": "_patientName",
          "type": "string"
        },
        {
          "internalType": "string",
          "name": "_policyType",
          "type": "string"
        },
        {
          "internalType": "uint256",
          "name": "_coverageAmount",
          "type": "uint256"
        },
        {
          "internalType": "uint256",
          "name": "_premium",
          "type": "uint256"
        },
        {
          "internalType": "uint256",
          "name": "_durationMonths",
          "type": "uint256"
        },
        {
          "internalType": "string",
          "name": "_insuranceCompany",
          "type": "string"
        }
      ],
      "name": "createPolicy",
      "outputs": [],
      "stateMutability": "nonpayable",
      "type": "function"
    },
    {
      "inputs": [
        {
          "internalType": "uint256",
          "name": "_policyId",
          "type": "uint256"
        }
      ],
      "name": "getPolicy",
      "outputs": [
        {
          "internalType": "string",
          "name": "policyNumber",
          "type": "string"
        },
        {
          "internalType": "string",
          "name": "did",
          "type": "string"
        },
        {
          "internalType": "string",
          "name": "patientName",
          "type": "string"
        },
        {
          "internalType": "string",
          "name": "policyType",
          "type": "string"
        },
        {
          "internalType": "uint256",
          "name": "coverageAmount",
          "type": "uint256"
        },
        {
          "internalType": "uint256",
          "name": "premium",
          "type": "uint256"
        },
        {
          "internalType": "string",
          "name": "status",
          "type": "string"
        }
      ],
      "stateMutability": "view",
      "type": "function",
      "constant": true
    },
    {
      "inputs": [
        {
          "internalType": "string",
          "name": "_policyNumber",
          "type": "string"
        }
      ],
      "name": "getPolicyByNumber",
      "outputs": [
        {
          "internalType": "uint256",
          "name": "",
          "type": "uint256"
        }
      ],
      "stateMutability": "view",
      "type": "function",
      "constant": true
    },
    {
      "inputs": [
        {
          "internalType": "string",
          "name": "_claimNumber",
          "type": "string"
        },
        {
          "internalType": "uint256",
          "name": "_policyId",
          "type": "uint256"
        },
        {
          "internalType": "string",
          "name": "_policyNumber",
          "type": "string"
        },
        {
          "internalType": "string",
          "name": "_did",
          "type": "string"
        },
        {
          "internalType": "string",
          "name": "_patientName",
          "type": "string"
        },
        {
          "internalType": "string",
          "name": "_claimType",
          "type": "string"
        },
        {
          "internalType": "uint256",
          "name": "_amount",
          "type": "uint256"
        },
        {
          "internalType": "string",
          "name": "_description",
          "type": "string"
        },
        {
          "internalType": "string",
          "name": "_hospitalName",
          "type": "string"
        },
        {
          "internalType": "string",
          "name": "_diagnosis",
          "type": "string"
        },
        {
          "internalType": "uint256",
          "name": "_fraudScore",
          "type": "uint256"
        },
        {
          "internalType": "bool",
          "name": "_isFraudulent",
          "type": "bool"
        },
        {
          "internalType": "string",
          "name": "_aiDecision",
          "type": "string"
        },
        {
          "internalType": "string",
          "name": "_mlFraudType",
          "type": "string"
        },
        {
          "internalType": "uint256",
          "name": "_mlConfidence",
          "type": "uint256"
        }
      ],
      "name": "submitClaim",
      "outputs": [],
      "stateMutability": "nonpayable",
      "type": "function"
    },
    {
      "inputs": [
        {
          "internalType": "uint256",
          "name": "_claimId",
          "type": "uint256"
        }
      ],
      "name": "approveClaim",
      "outputs": [],
      "stateMutability": "nonpayable",
      "type": "function"
    },
    {
      "inputs": [
        {
          "internalType": "uint256",
          "name": "_claimId",
          "type": "uint256"
        }
      ],
      "name": "rejectClaim",
      "outputs": [],
      "stateMutability": "nonpayable",
      "type": "function"
    },
    {
      "inputs": [
        {
          "internalType": "uint256",
          "name": "_claimId",
          "type": "uint256"
        }
      ],
      "name": "getClaim",
      "outputs": [
        {
          "internalType": "string",
          "name": "claimNumber",
          "type": "string"
        },
        {
          "internalType": "string",
          "name": "patientName",
          "type": "string"
        },
        {
          "internalType": "string",
          "name": "claimType",
          "type": "string"
        },
        {
          "internalType": "uint256",
          "name": "amount",
          "type": "uint256"
        },
        {
          "internalType": "string",
          "name": "status",
          "type": "string"
        },
        {
          "internalType": "uint256",
          "name": "fraudScore",
          "type": "uint256"
        },
        {
          "internalType": "bool",
          "name": "isFraudulent",
          "type": "bool"
        },
        {
          "internalType": "string",
          "name": "mlFraudType",
          "type": "string"
        },
        {
          "internalType": "uint256",
          "name": "mlConfidence",
          "type": "uint256"
        }
      ],
      "stateMutability": "view",
      "type": "function",
      "constant": true
    },
    {
      "inputs": [
        {
          "internalType": "uint256",
          "name": "_globalAccuracy",
          "type": "uint256"
        },
        {
          "internalType": "uint256",
          "name": "_nodesParticipated",
          "type": "uint256"
        },
        {
          "internalType": "uint256",
          "name": "_totalSamples",
          "type": "uint256"
        }
      ],
      "name": "recordTrainingRound",
      "outputs": [],
      "stateMutability": "nonpayable",
      "type": "function"
    },
    {
      "inputs": [
        {
          "internalType": "uint256",
          "name": "_roundNumber",
          "type": "uint256"
        }
      ],
      "name": "getTrainingRound",
      "outputs": [
        {
          "internalType": "uint256",
          "name": "globalAccuracy",
          "type": "uint256"
        },
        {
          "internalType": "uint256",
          "name": "nodesParticipated",
          "type": "uint256"
        },
        {
          "internalType": "uint256",
          "name": "totalSamples",
          "type": "uint256"
        },
        {
          "internalType": "uint256",
          "name": "timestamp",
          "type": "uint256"
        }
      ],
      "stateMutability": "view",
      "type": "function",
      "constant": true
    },
    {
      "inputs": [],
      "name": "getTotalCounts",
      "outputs": [
        {
          "internalType": "uint256",
          "name": "totalUsers",
          "type": "uint256"
        },
        {
          "internalType": "uint256",
          "name": "totalIdentities",
          "type": "uint256"
        },
        {
          "internalType": "uint256",
          "name": "totalPolicies",
          "type": "uint256"
        },
        {
          "internalType": "uint256",
          "name": "totalClaims",
          "type": "uint256"
        },
        {
          "internalType": "uint256",
          "name": "totalTrainingRounds",
          "type": "uint256"
        }
      ],
      "stateMutability": "view",
      "type": "function",
      "constant": true
    }
  ],
  "bytecode": "0x608034620005af57600e80546001600160a01b031990811633179091559060c081016001600160401b03811182821017620003065760405262000041620005b4565b600581526430b236b4b760d91b602082015281526200005f620005b4565b600581526430b236b4b760d91b6020820152602082015262000080620005b4565b601481527f53797374656d2041646d696e6973747261746f7200000000000000000000000060208201526040820152336060820152426080820152600160a0820152336000526000602052604060002090805192835160018060401b03811162000306578354600181811c91168015620005a4575b6020821014620003e957601f81116200055b575b506020601f8211600114620004ed578192939495600092620004e1575b50508160011b916000199060031b1c19161783555b602082015180519093906001600160401b03811162000306576001820154600181811c91168015620004d6575b6020821014620003e957601f81116200048a575b506020601f8211600114620004165781929394956000926200040a575b50508160011b916000199060031b1c19161760018201555b604083015180519093906001600160401b03811162000306576002830154600181811c91168015620003ff575b6020821014620003e957601f811162000399575b50602094601f821160011462000328579481929394956000926200031c575b50508160011b916000199060031b1c19161760028301555b60a060056003840193600180841b039485606086015116878254161790556080840151600482015501910151151560ff8019835416911617905580600e541660256040516430b236b4b760d91b815260016005820152209083825416179055600e54166002546801000000000000000081101562000306576001810180600255811015620002f05760026000527f405787fa12a823e0f2b7631cc41b3ba8828b3321ca811111fa75cd3aa3bb5ace0180549092161790556040516135389081620005d58239f35b634e487b7160e01b600052603260045260246000fd5b634e487b7160e01b600052604160045260246000fd5b01519050388062000211565b601f198216956002850160005260206000209160005b888110620003805750836001959697981062000366575b505050811b01600283015562000229565b015160001960f88460031b161c1916905538808062000355565b919260206001819286850151815501940192016200033e565b600284016000526020600020601f830160051c81019160208410620003de575b601f0160051c01905b818110620003d15750620001f2565b60008155600101620003c2565b9091508190620003b9565b634e487b7160e01b600052602260045260246000fd5b90607f1690620001de565b01519050388062000199565b6001830160005260206000209060005b601f198416811062000471575060019394959683601f1981161062000457575b505050811b016001820155620001b1565b015160001960f88460031b161c1916905538808062000446565b9091602060018192858b01518155019301910162000426565b600183016000526020600020601f830160051c810160208410620004ce575b601f830160051c82018110620004c15750506200017c565b60008155600101620004a9565b5080620004a9565b90607f169062000168565b01519050388062000126565b8460005260206000209060005b601f198416811062000542575060019394959683601f1981161062000528575b505050811b0183556200013b565b015160001960f88460031b161c191690553880806200051a565b9091602060018192858b015181550193019101620004fa565b846000526020600020601f830160051c8101602084106200059c575b601f830160051c820181106200058f57505062000109565b6000815560010162000577565b508062000577565b90607f1690620000f5565b600080fd5b60408051919082016001600160401b03811183821017620003065760405256fe6101c0604052600436101561001357600080fd5b60003560e01c806301e21afb14612d8d578063045af33414612d4d5780630796260914612ce15780630a29ae6f14612b545780630f37a5d514612b1d57806316146e6a146127195780631a59cd69146121985780632034110114611f0f578063282f06e414611ef15780632b07fce314611d695780632ed912df14611d20578063398c3e9514611b5d57806346e30135146118a75780634efa8f1714611889578063502c9bd5146118475780635aef24471461160f5780636f77926b1461150c5780637eeede35146114195780637fa84046146113785780639db1ae621461132f5780639f42af631461121b578063a87430ba1461115d578063a888c2cd14610e99578063b9d6964714610d0f578063c174b2eb146108ce578063d0e3752c14610878578063d3e8948314610740578063d52c1bea14610722578063d637dcfa146103e2578063dfb6c6661461037b578063e2842d79146102b3578063f825f1431461024b578063f851a440146102225763fad9b0851461019357600080fd5b3461021d57602036600319011261021d57600435600052600c60205260806040600020604051906101c382612ef8565b80548252600181015491826020820152600282015480604083015260038301549182606082015260a060048501549485888401526005600180841b0391015416910152604051938452602084015260408301526060820152f35b600080fd5b3461021d57600036600319011261021d57600e546040516001600160a01b039091168152602090f35b3461021d57602036600319011261021d576004356001600160401b03811161021d5761027d6020913690600401612f4f565b816102916040519283815193849201612fa5565b600190820190815281900382019020546040516001600160a01b039091168152f35b3461021d57600036600319011261021d57604051806002548083526020809301809160026000527f405787fa12a823e0f2b7631cc41b3ba8828b3321ca811111fa75cd3aa3bb5ace9060005b8682821061035e57868661031582880383612f2e565b604051928392818401908285525180915260408401929160005b82811061033e57505050500390f35b83516001600160a01b03168552869550938101939281019260010161032f565b83546001600160a01b0316855290930192600192830192016102ff565b3461021d57602036600319011261021d576004356001600160401b03811161021d576103c460206103b181933690600401612f4f565b8160405193828580945193849201612fa5565b81016007815203019020546103da8115156133e4565b604051908152f35b3461021d57606036600319011261021d576001600160401b0360043581811161021d57610413903690600401612f4f565b9060243581811161021d5761042c903690600401612f4f565b9060443590811161021d57610445903690600401612f4f565b336000526020906000825260ff600560406000200154166106dd5760405191845181860190610475818684612fa5565b840160018152848360018060a01b039687930301902054166106a75784518286019081206104a1613151565b8481519101201490811561068c575b8115610671575b501561063d5761057982604051926104ce84612ef8565b88845261056882850194898652600560408201968988526060830197338952610530608085019142835261052660a0870194600186523360005260008b5261051c60406000209851896131fc565b51600188016131fc565b51600286016131fc565b8b60038501995116986001600160601b0360a01b998a82541617905551600484015551151591019060ff801983541691151516179055565b604051809381928b51928391612fa5565b8101600181520301902090339082541617905560025490600160401b821015610627577feb909d03a1826538126783a14a06a590245c9e5085337d88971cca5ada6b809994610618946105d584600161060a960160025561311a565b819291549060031b9133831b921b19161790556105fd604051976080895260808901906130a8565b91878303908801526130a8565b9084820360408601526130a8565b914260608201528033930390a2005b634e487b7160e01b600052604160045260246000fd5b60405162461bcd60e51b815260048101839052600c60248201526b496e76616c696420726f6c6560a01b6044820152606490fd5b90508551902061067f613198565b83815191012014876104b7565b90508551812061069a613174565b84815191012014906104b0565b60405162461bcd60e51b815260048101839052600e60248201526d2ab9b2b93730b6b2903a30b5b2b760911b6044820152606490fd5b60405162461bcd60e51b815260048101839052601760248201527f5573657220616c726561647920726567697374657265640000000000000000006044820152606490fd5b3461021d57600036600319011261021d576020600854604051908152f35b3461021d57602036600319011261021d576004356000526006602052604060002080546001820161077090613002565b9161077d60028201613002565b61078960038301613002565b61079560048401613002565b60058401546006850154600786015460088701546001600160a01b0316916107bf60098901613002565b946107cc600a8a01613002565b96600b8a015499600c015460ff16986040519c8d9c8d528c6101a06020819201528d016107f8916130a8565b8c810360408e0152610809916130a8565b8b810360608d015261081a916130a8565b8a810360808c015261082b916130a8565b9360a08a015260c089015260e0880152610100870152858103610120870152610853916130a8565b848103610140860152610865916130a8565b9161016084015215156101808301520390f35b3461021d57602036600319011261021d576004356001600160a01b0381169081900361021d5760005260046020526108ca6108b66040600020613002565b6040519182916020835260208301906130a8565b0390f35b3461021d5761010036600319011261021d576001600160401b0360043581811161021d57610900903690600401612f4f565b9060243581811161021d57610919903690600401612f4f565b9060443581811161021d57610932903690600401612f4f565b60643582811161021d5761094a903690600401612f4f565b9160e43590811161021d57610963903690600401612f4f565b9133600052600060205261098160ff6005604060002001541661333d565b610989613198565b3360005260006020526001604060002001604051906000908054906109ad82612fc8565b8085529160018116908115610ce85750600114610ca3575b5050906109d8816109ed94930382612f2e565b6020815191012090602081519101201461337f565b60ff60076040516020818851610a068183858d01612fa5565b8101600381520301902001541615610c70576040516020818751610a2d8183858c01612fa5565b8101600781520301902054610c3457610bb192610a4b6008546133bf565b918260085560405193610a5d85612edc565b8385528760208601528660408601526060850152608084015260843560a084015260a43560c084015260c43560e084015233610100840152610120830152604051610aa781612f13565b600681526541435449564560d01b60208201526101408301524261016083015260016101808301526000526006602052600c61018060406000209280518455610af76020820151600186016131fc565b610b086040820151600286016131fc565b610b196060820151600386016131fc565b610b2a6080820151600486016131fc565b60a0810151600585015560c0810151600685015560e081015160078501556008840160018060a01b03610100830151166001600160601b0360a01b825416179055610b7d610120820151600986016131fc565b610b8f610140820151600a86016131fc565b610160810151600b8501550151151591019060ff801983541691151516179055565b7f14c1da402162a0703c0e052e343daa8008267153d657a8fa0b0d982d65eda48f610c1d60085492836040516020818851610bef8183858d01612fa5565b8101600781520301902055610c0f604051956080875260808701906130a8565b9085820360208701526130a8565b9260843560408201524260608201528033940390a3005b60405162461bcd60e51b8152602060048201526014602482015273506f6c696379206e756d6265722065786973747360601b6044820152606490fd5b60405162461bcd60e51b815260206004820152600b60248201526a125b9d985b1a590811125160aa1b6044820152606490fd5b60009081526020812094939250905b808210610ccc57509192509081016020016109d8826109c5565b9192936001816020925483858801015201910190939291610cb2565b60ff191660208087019190915292151560051b850190920192506109d891508390506109c5565b3461021d57600036600319011261021d5733600052602060048152610d376040600020613002565b90815115610e61576108ca610d5d82610e2a948160405193828580945193849201612fa5565b81016003815203019020610e5360405193610d7785612ea4565b610d8083613002565b8552610e45610d9160018501613002565b95828101968752610e37610da760028701613002565b9360408301948552610dbb60038801613002565b926060810193845260ff6007610dd360048b01613002565b998a608085015282600582015460018060a01b03811660a087015260a01c16151560c0850152600681015460e0850152015416151561010082015251985194519251946040519a8b9a60a08c5260a08c01906130a8565b918a8303908b01526130a8565b9087820360408901526130a8565b9085820360608701526130a8565b9083820360808501526130a8565b6064906040519062461bcd60e51b825260048201526011602482015270139bc81a59195b9d1a5d1e48199bdd5b99607a1b6044820152fd5b3461021d57602036600319011261021d576004356000526009602052604060002080608052805490600101610ecd90613002565b61018052608051600281015460a052600301610ee890613002565b61016052608051600401610efb90613002565b608051600501610f0a90613002565b608051600601610f1990613002565b608051600781015490600801610f2e90613002565b608051600901610f3d90613002565b608051600a01610f4c90613002565b9160805193600160a01b60019003600b8601541695600c86015495600d01610f7390613002565b9760805199600e8b01549b600f8c015460ff169b601001610f9390613002565b61012052608051601101610fa690613002565b60e05260805160128101546101a0526013810154610140526014015460c0526040518061010052526102c080610100516020015261010051016101805190610fed916130a8565b60a05161010051604001526101005180820390606001526101605190611012916130a8565b610100518082039060800152611027916130a8565b610100518082039060a0015261103c916130a8565b610100518082039060c00152611051916130a8565b906101005160e0015261010051808203906101000152611070916130a8565b61010051808203906101200152611086916130a8565b6101005180820390610140015261109c916130a8565b9161010051610160015261010051610180015261010051808203906101a001526110c5916130a8565b91610100516101c001521515610100516101e001526101005180820390610200015261012051906110f5916130a8565b6101005180820390610220015260e0519061110f916130a8565b6101a05161010051610240015261014051610100516102600152600160a01b6001900360c0511661010051610280015260c05160a01c60ff161515610100516102a001526101005180910390f35b3461021d57602036600319011261021d576004356001600160a01b038181169182900361021d576111e991600052600060205260406000209061119f82613002565b916111ac60018201613002565b906112056111bc60028301613002565b93600383015416936111f760ff60056004860154950154169460405198899860c08a5260c08a01906130a8565b9088820360208a01526130a8565b9086820360408801526130a8565b9260608501526080840152151560a08301520390f35b3461021d5760208060031936011261021d576004356001600160401b03811161021d5761124c903690600401612f4f565b816112606040519283815193849201612fa5565b810160018152818360018060a01b03938493030190205416806000526000835261129460ff60056040600020015416613300565b600052600082526108ca6040600020916113216040516112b381612ef8565b6112bc85613002565b81526112ca60018601613002565b9086810191825260a060ff60056112e360028a01613002565b9687604086015260038a01541698896060860152600481015460808601520154161515910152516060604051968796875286015260608501906130a8565b9083820360408501526130a8565b3461021d57602036600319011261021d576004356001600160401b03811161021d5761136560206103b181933690600401612f4f565b8101600781520301902054604051908152f35b3461021d57602036600319011261021d576004356001600160401b03811161021d576113aa6020913690600401612f4f565b60405160ff60078351928581818701956113c5818389612fa5565b8101600381520301902001541691826113e5575b50506040519015158152f35b60ff92508360059261140292604051938492839251928391612fa5565b81016003815203019020015460a01c1682806113d9565b3461021d57600036600319011261021d576005546001600160401b0381116106275760405190602090611451828260051b0184612f2e565b808352818301908160056000527f036b6384b5eca791c62761152d0c79bb0604c104a5fb6f4eb0703f3154bb3db06000915b8383106114ea5750505050604051918083019381845251809452604083019360408160051b85010192916000955b8287106114be5785850386f35b9091929382806114da600193603f198a820301865288516130a8565b96019201960195929190926114b1565b60018681926114fb859a999a613002565b815201920192019190959495611483565b3461021d57602036600319011261021d576004356001600160a01b038181169182900361021d57816115e492600052600060205261155460ff60056040600020015416613300565b600052600060205260406000206040519061156e82612ef8565b61157781613002565b825261160061158860018301613002565b93602084019485526115f261159f60028501613002565b918260408701526003850154169485606082015260ff6005600487015496876080850152015416151560a082015251955160405197889760a0895260a08901906130a8565b9087820360208901526130a8565b9085820360408701526130a8565b91606084015260808301520390f35b3461021d57602036600319011261021d5760043580600052600960205260406000206014015460a01c60ff1661164490613446565b6000526009602052604060002060405161165d81612ec0565b8154815261166d60018301613002565b60208201908152600283015460408301529061168b60038401613002565b606082015261169c60048401613002565b60808201526116ad60058401613002565b60a08201908152926116c160068201613002565b60c08301908152600782015460e0840190815290926116e260088401613002565b936101009485830152600984016116f890613002565b956101209687840152600a850161170e90613002565b610140840152600b8501546001600160a01b03908116610160850152600c86015461018085015293611742600d8701613002565b906101a08501918252600e870154926101c08601938452600f88015460ff16956101e0810196151587526010890161177990613002565b61020082015261178b60118a01613002565b978861022083015260128a0154998a61024084015260138101546102608401526014015490811661028083015260a01c60ff161515906102a00152519951935190519151925194511515936040519a8a8c9b8c528b016117ea916130a8565b8a810360208c01526117fb916130a8565b89810360408b015261180c916130a8565b9060608901528781036080890152611823916130a8565b9160a087015260c086015284810360e086015261183f916130a8565b918301520390f35b3461021d57602036600319011261021d5760043560025481101561021d5761187060209161311a565b905460405160039290921b1c6001600160a01b03168152f35b3461021d57600036600319011261021d576020600b54604051908152f35b3461021d5760208060031936011261021d5760043533600052600082526118d860ff6005604060002001541661333d565b6118e0613198565b90336000526000835260019081604060002001926040519360009481549161190783612fc8565b9081835288830193898882169182600014611b3d575050600114611b05575b5050611939816119499596970382612f2e565b519020908581519101201461337f565b806000526009835261196860ff60146040600020015460a01c16613446565b8060005260098352600d604060002001916040516000938581549361198c85612fc8565b92838552828501958281169081600014611ae45750600114611aa6575b505050506119bd816119d494950382612f2e565b5190206119c8613423565b84815191012014613484565b600081815260098352604080822060020154825260068452902060080154611a06906001600160a01b031633146134c4565b8060005260098252600d60406000200191611a2a611a248454612fc8565b846131d4565b671054141493d5915160c21b9260108401905581600052600981526014604060002042601382015501336001600160601b0360a01b825416179055604051926040845260086040850152606084015242908301527f6b7553a4bd186b51edcbeec8f3e76a9437a907be9ad2aba7e318eccc2816ea9a60803393a3005b600090815282812092975092915b828410611ad1575050508101909301926119bd856119d4836119a9565b8054858501890152928701928101611ab4565b60ff1916875250505090151560051b82010193506119bd856119d4836119a9565b90965060005286806000206000905b888210611b2a5750820101955061193981611926565b8054848301840152908201908701611b14565b60ff1916865292151560051b840190920197506119399150829050611926565b3461021d57606036600319011261021d5760043533600052602060008152611b8f60ff6005604060002001541661333d565b611b97613198565b3360005260008252600190816040600020016040516000825492611bba84612fc8565b9081845287840194888882169182600014611d00575050600114611cc4575b505090611bed81611bfd9594930382612f2e565b519020908481519101201461337f565b6005611c0a600d546133bf565b9182600d5560405190611c1c82612ef8565b8382528482019086825260408301602435815260608401916044358352608085019342855260a0860197338952600052600c89526040600020955186555190850155516002840155516003830155516004820155019060018060a01b039051166001600160601b0360a01b825416179055600d549060405192835242908301527f61350d44c3e4a7a0452b15b9b8c8f474b129a9fe602fe6738954e0b33f08628d60403393a3005b8792506000528160002090866000925b828410611cea57505050820101611bed82611bd9565b8054848701860152899490930192889101611cd4565b60ff1916875292151560051b85019092019250611bed9150839050611bd9565b3461021d57602036600319011261021d576004356001600160401b03811161021d57611d5660206103b181933690600401612f4f565b8101600a81520301902054604051908152f35b3461021d57602036600319011261021d57600435806000526006602052611d9a60ff600c60406000200154166133e4565b6000526006602052611eaf60406000206108ca604051611db981612edc565b82548152611dc960018401613002565b9260208201938452611ddd60028201613002565b9360408301948552611ed9611df460038401613002565b9160608501928352611ecb611e0b60048601613002565b60808701908152600586015460a08801908152600687015460c08901908152600788015460e08a015260088801546001600160a01b03166101008a0152979093611ebd91611e5b60098a01613002565b61012082015261018060ff600c611e74600a8d01613002565b9b8c610140860152600b81015461016086015201541615159101525199519551915193519751956040519b8c9b60e08d5260e08d01906130a8565b908b820360208d01526130a8565b9089820360408b01526130a8565b9087820360608901526130a8565b92608086015260a085015283820360c08501526130a8565b3461021d57600036600319011261021d576020600d54604051908152f35b3461021d5760208060031936011261021d576004353360005260008252611f4060ff6005604060002001541661333d565b611f48613198565b903360005260008352600190816040600020019260405193600094815491611f6f83612fc8565b9081835288830193898882169182600014612178575050600114612140575b505061193981611fa19596970382612f2e565b8060005260098352611fc060ff60146040600020015460a01c16613446565b8060005260098352600d6040600020019160405160009385815493611fe485612fc8565b9283855282850195828116908160001461211f57506001146120e1575b505050506119bd8161201594950382612f2e565b600081815260098352604080822060020154825260068452902060080154612047906001600160a01b031633146134c4565b8060005260098252600d60406000200191612065611a248454612fc8565b671491529150d5115160c21b9260108401905581600052600981526014604060002042601382015501336001600160601b0360a01b825416179055604051926040845260086040850152606084015242908301527f6b7553a4bd186b51edcbeec8f3e76a9437a907be9ad2aba7e318eccc2816ea9a60803393a3005b600090815282812092975092915b82841061210c575050508101909301926119bd8561201583612001565b80548585018901529287019281016120ef565b60ff1916875250505090151560051b82010193506119bd8561201583612001565b90965060005286806000206000905b8882106121655750820101955061193981611f8e565b805484830184015290820190870161214f565b60ff1916865292151560051b840190920197506119399150829050611f8e565b3461021d576101e036600319011261021d576001600160401b0360043581811161021d576121ca903690600401612f4f565b9060443581811161021d576121e3903690600401612f4f565b60643582811161021d576121fb903690600401612f4f565b60843583811161021d57612213903690600401612f4f565b9260a43581811161021d5761222c903690600401612f4f565b9060e43581811161021d57612245903690600401612f4f565b6101043582811161021d5761225e903690600401612f4f565b6101243583811161021d57612277903690600401612f4f565b906101643592831515840361021d576101843585811161021d5761229f903690600401612f4f565b946101a43590811161021d576122b9903690600401612f4f565b953360005260006020526122d760ff6005604060002001541661333d565b6122df613174565b33600052600060205260016040600020016040519060009080549061230382612fc8565b80855291600181169081156126f257506001146126ad575b5050906109d88161232e94930382612f2e565b602435600052600660205260ff600c6040600020015416156126775761236360208c8160405193828580945193849201612fa5565b8101600a8152030190205461263c576125be99612381600b546133bf565b9889600b556040519a6123938c612ec0565b8a8c528d60208d015260243560408d015260608c015260808b015260a08a015260c089015260c43560e089015261010088015261012087015261014086015233610160860152426101808601526123e8613423565b6101a0860152610144356101c086015215156101e08501526102008401526102208301526101c4356102408301526000610260830152600061028083015260016102a083015260005260096020526102a0604060002091805183556124546020820151600185016131fc565b6040810151600284015561246f6060820151600385016131fc565b6124806080820151600485016131fc565b61249160a0820151600585016131fc565b6124a260c0820151600685016131fc565b60e081015160078401556124be610100820151600885016131fc565b6124d0610120820151600985016131fc565b6124e2610140820151600a85016131fc565b600b8301601460018060a01b03948561016085015116926001600160601b0360a01b9384825416179055610180840151600c8201556125296101a0850151600d83016131fc565b6101c0840151600e8201556125546101e08501511515600f83019060ff801983541691151516179055565b612566610200850151601083016131fc565b612578610220850151601183016131fc565b61024084015160128201556102608401516013820155019361028083015116908454161783550151151581549060ff60a01b90151560a01b169060ff60a01b1916179055565b600b548060405160208185516125d78183858a01612fa5565b8101600a815203019020556125f7604051926080845260808401906130a8565b9060c43560208401526101443560408401524260608401527f17b499daf722ddb762551e3e3917ea7cb0856208309819e70e461166996f7efb339380602435940390a4005b60405162461bcd60e51b8152602060048201526013602482015272436c61696d206e756d6265722065786973747360681b6044820152606490fd5b60405162461bcd60e51b815260206004820152600e60248201526d496e76616c696420706f6c69637960901b6044820152606490fd5b60009081526020812094939250905b8082106126d657509192509081016020016109d88261231b565b91929360018160209254838588010152019101909392916126bc565b60ff191660208087019190915292151560051b850190920192506109d8915083905061231b565b3461021d5760a036600319011261021d576001600160401b0360043581811161021d5761274a903690600401612f4f565b60243582811161021d57612762903690600401612f4f565b9060443583811161021d5761277b903690600401612f4f565b9260643581811161021d57612794903690600401612f4f565b9060843590811161021d576127ad903690600401612f4f565b33600052602094600086526127cc60ff6005604060002001541661333d565b6127d4613151565b9133600052600087526001928360406000200160405160008a8354936127f985612fc8565b90818552828501958a81169081600014612b015750600114612ac5575b5050509061282b8161283b9594930382612f2e565b519020908981519101201461337f565b6040519360ff60078751968a81818b019961285781838d612fa5565b81016003815203019020015416612a8b57336000526004885261287e604060002054612fc8565b612a46579087916040519361289285612ea4565b8785528385019289845260408601918252606086019283526080860190815260a086019233845260c087019288845260e08801954287528a6101008a01988b8a528d604051809381925180926128e792612fa5565b8101600381520301902098516128fd908a6131fc565b5161290a90898b016131fc565b5161291890600289016131fc565b5161292690600388016131fc565b5161293490600487016131fc565b9051600585018054925160ff60a01b90151560a01b166001600160a01b039092166001600160a81b031990931692909217179055516006830155511515906007019061298b919060ff801983541691151516179055565b3360005260048552826040600020906129a3916131fc565b600554600160401b811015610627576129c09181016005556130cd565b919091612a3057826129f67fda6fc8f0b69e7d4df4df301da0337cdd8a69269b962944851ed29533c726b37e94612a07946131fc565b604051928392839251928391612fa5565b810103902091612a22604051916040835260408301906130a8565b9342908201528033940390a3005b634e487b7160e01b600052600060045260246000fd5b60405162461bcd60e51b815260048101899052601860248201527f4964656e7469747920616c7265616479206372656174656400000000000000006044820152606490fd5b60405162461bcd60e51b815260048101899052601260248201527144494420616c72656164792065786973747360701b6044820152606490fd5b909192506000528160002090886000925b828410612aed575050508201018a8261283b612816565b8054868501860152928401928a9101612ad6565b60ff191687525050151560051b83010190508a8261283b612816565b3461021d57602036600319011261021d5760043560055481101561021d57612b44906130cd565b612a30576108b66108ca91613002565b3461021d5760208060031936011261021d576004356001600160401b03811161021d57612b85903690600401612f4f565b906040519160ff6007825194848181860197612ba281838b612fa5565b8101600381520301902001541615612ca757816105fd93612bce92604051938492839251928391612fa5565b8101600381520301902060405190612be582612ea4565b612bee81613002565b8252612bfc60018201613002565b91838101928352612c93612c1260028401613002565b9460408301958652612c2660038501613002565b6060840152612c3760048501613002565b608084015260058401549460ff60018060a01b038716968760a087015260a01c161515938460c082015261010060ff60076006890154988960e0860152015416151591015251955160405197889760a0895260a08901906130a8565b926040850152606084015260808301520390f35b60405162461bcd60e51b81526004810183905260126024820152711259195b9d1a5d1e481b9bdd08199bdd5b9960721b6044820152606490fd5b3461021d57602036600319011261021d57600435600052600c60205260c060406000208054906001810154906002810154600382015490600483015492600560018060a01b039101541693604051958652602086015260408501526060840152608083015260a0820152f35b3461021d57600036600319011261021d5760a0600254600554600854600b5490600d54926040519485526020850152604084015260608301526080820152f35b3461021d57602036600319011261021d576004356001600160401b03811161021d57612dc560206103b1612e41933690600401612f4f565b81016003815203019020612dd881613002565b90612de560018201613002565b612df160028301613002565b9160ff612e79612e0360038401613002565b612e6b612e1260048601613002565b91612e5d600587015498612e4f87600760068b01549a015416996040519d8e9d8e6101209081815201906130a8565b8d810360208f0152906130a8565b908b820360408d01526130a8565b9089820360608b01526130a8565b9087820360808901526130a8565b9360018060a01b03811660a087015260a01c16151560c085015260e084015215156101008301520390f35b61012081019081106001600160401b0382111761062757604052565b6102c081019081106001600160401b0382111761062757604052565b6101a081019081106001600160401b0382111761062757604052565b60c081019081106001600160401b0382111761062757604052565b604081019081106001600160401b0382111761062757604052565b90601f801991011681019081106001600160401b0382111761062757604052565b81601f8201121561021d578035906001600160401b0382116106275760405192612f83601f8401601f191660200185612f2e565b8284526020838301011161021d57816000926020809301838601378301015290565b60005b838110612fb85750506000910152565b8181015183820152602001612fa8565b90600182811c92168015612ff8575b6020831014612fe257565b634e487b7160e01b600052602260045260246000fd5b91607f1691612fd7565b906040519182600082549261301684612fc8565b9081845260019485811690816000146130855750600114613042575b505061304092500383612f2e565b565b9093915060005260209081600020936000915b81831061306d57505061304093508201013880613032565b85548884018501529485019487945091830191613055565b91505061304094506020925060ff191682840152151560051b8201013880613032565b906020916130c181518092818552858086019101612fa5565b601f01601f1916010190565b6005548110156131045760056000527f036b6384b5eca791c62761152d0c79bb0604c104a5fb6f4eb0703f3154bb3db00190600090565b634e487b7160e01b600052603260045260246000fd5b6002548110156131045760026000527f405787fa12a823e0f2b7631cc41b3ba8828b3321ca811111fa75cd3aa3bb5ace0190600090565b6040519061315e82612f13565b60078252661c185d1a595b9d60ca1b6020830152565b6040519061318182612f13565b60088252671a1bdcdc1a5d185b60c21b6020830152565b604051906131a582612f13565b6009825268696e737572616e636560b81b6020830152565b8181106131c8575050565b600081556001016131bd565b90601f81116131e1575050565b61304091600052601f6020600020910160051c8101906131bd565b91909182516001600160401b038111610627576132198254612fc8565b601f81116132c3575b50602080601f831160011461325f575081929394600092613254575b50508160011b916000199060031b1c1916179055565b01519050388061323e565b90601f198316958460005282600020926000905b8882106132ab57505083600195969710613292575b505050811b019055565b015160001960f88460031b161c19169055388080613288565b80600185968294968601518155019501930190613273565b6132f090836000526020600020601f840160051c810191602085106132f6575b601f0160051c01906131bd565b38613222565b90915081906132e3565b1561330757565b60405162461bcd60e51b815260206004820152600e60248201526d155cd95c881b9bdd08199bdd5b9960921b6044820152606490fd5b1561334457565b60405162461bcd60e51b8152602060048201526013602482015272155cd95c881b9bdd081c9959da5cdd195c9959606a1b6044820152606490fd5b1561338657565b60405162461bcd60e51b8152602060048201526011602482015270556e617574686f72697a656420726f6c6560781b6044820152606490fd5b60001981146133ce5760010190565b634e487b7160e01b600052601160045260246000fd5b156133eb57565b60405162461bcd60e51b815260206004820152601060248201526f141bdb1a58de481b9bdd08199bdd5b9960821b6044820152606490fd5b6040519061343082612f13565b600782526650454e44494e4760c81b6020830152565b1561344d57565b60405162461bcd60e51b815260206004820152600f60248201526e10db185a5b481b9bdd08199bdd5b99608a1b6044820152606490fd5b1561348b57565b60405162461bcd60e51b8152602060048201526011602482015270436c61696d206e6f742070656e64696e6760781b6044820152606490fd5b156134cb57565b60405162461bcd60e51b815260206004820152600f60248201526e4e6f7420796f757220706f6c69637960881b6044820152606490fdfea26469706673582212209ff9096bf5d9bccaa5ef09ad325b7d52b027226cb55981727c6fe6f59f9d03a164736f6c63430008130033",
  "immutableReferences": {},
  "source": "// SPDX-License-Identifier: MIT\r\npragma solidity ^0.8.0;\r\n\r\ncontract InsuranceClaim {\r\n    \r\n    // User struct\r\n    struct User {\r\n        string username;\r\n        string role; // patient, hospital, insurance, admin\r\n        string name;\r\n        address walletAddress;\r\n        uint256 registeredAt;\r\n        bool exists;\r\n    }\r\n    \r\n    // SSI Identity struct\r\n    struct Identity {\r\n        string did;\r\n        string name;\r\n        string email;\r\n        string idNumber;\r\n        string dateOfBirth;\r\n        address owner;\r\n        bool isVerified;\r\n        uint256 createdAt;\r\n        bool exists;\r\n    }\r\n    \r\n    // Policy struct\r\n    struct Policy {\r\n        uint256 id;\r\n        string policyNumber;\r\n        string did;\r\n        string patientName;\r\n        string policyType;\r\n        uint256 coverageAmount;\r\n        uint256 premium;\r\n        uint256 durationMonths;\r\n        address createdBy;\r\n        string insuranceCompany;\r\n        string status; // ACTIVE, EXPIRED, CANCELLED\r\n        uint256 createdAt;\r\n        bool exists;\r\n    }\r\n    \r\n    // Claim struct\r\n    struct Claim {\r\n        uint256 id;\r\n        string claimNumber;\r\n        uint256 policyId;\r\n        string policyNumber;\r\n        string did;\r\n        string patientName;\r\n        string claimType;\r\n        uint256 amount;\r\n        string description;\r\n        string hospitalName;\r\n        string diagnosis;\r\n        address submittedBy;\r\n        uint256 submittedAt;\r\n        string status; // PENDING, APPROVED, REJECTED\r\n        uint256 fraudScore; // Stored as percentage (0-100)\r\n        bool isFraudulent;\r\n        string aiDecision; // APPROVED, FLAGGED\r\n        string mlFraudType; // NEW: NO_FRAUD, OVERBILLING, FAKE_CLAIM, etc.\r\n        uint256 mlConfidence; // NEW: ML model confidence (0-100)\r\n        uint256 processedAt;\r\n        address processedBy;\r\n        bool exists;\r\n    }\r\n    \r\n    // FL Training Round struct\r\n    struct TrainingRound {\r\n        uint256 roundNumber;\r\n        uint256 globalAccuracy; // Stored as percentage (0-100)\r\n        uint256 nodesParticipated;\r\n        uint256 totalSamples;\r\n        uint256 timestamp;\r\n        address triggeredBy;\r\n    }\r\n    \r\n    // State variables\r\n    mapping(address => User) public users;\r\n    mapping(string => address) public usernameToAddress;\r\n    address[] public userAddresses;\r\n    \r\n    mapping(string => Identity) public identities; // DID => Identity\r\n    mapping(address => string) public ownerToDID;\r\n    string[] public allDIDs;\r\n    \r\n    mapping(uint256 => Policy) public policies;\r\n    mapping(string => uint256) public policyNumberToId;\r\n    uint256 public policyCounter;\r\n    \r\n    mapping(uint256 => Claim) public claims;\r\n    mapping(string => uint256) public claimNumberToId;\r\n    uint256 public claimCounter;\r\n    \r\n    mapping(uint256 => TrainingRound) public trainingRounds;\r\n    uint256 public trainingRoundCounter;\r\n    \r\n    address public admin;\r\n    \r\n    // Events\r\n    event UserRegistered(\r\n        address indexed userAddress,\r\n        string username,\r\n        string role,\r\n        string name,\r\n        uint256 timestamp\r\n    );\r\n    \r\n    event IdentityCreated(\r\n        string indexed did,\r\n        address indexed owner,\r\n        string name,\r\n        uint256 timestamp\r\n    );\r\n    \r\n    event IdentityVerified(\r\n        string indexed did,\r\n        address indexed verifier,\r\n        uint256 timestamp\r\n    );\r\n    \r\n    event PolicyCreated(\r\n        uint256 indexed policyId,\r\n        string policyNumber,\r\n        string did,\r\n        address indexed createdBy,\r\n        uint256 coverageAmount,\r\n        uint256 timestamp\r\n    );\r\n    \r\n    event ClaimSubmitted(\r\n        uint256 indexed claimId,\r\n        string claimNumber,\r\n        uint256 indexed policyId,\r\n        address indexed submittedBy,\r\n        uint256 amount,\r\n        uint256 fraudScore,\r\n        uint256 timestamp\r\n    );\r\n    \r\n    event ClaimProcessed(\r\n        uint256 indexed claimId,\r\n        string status,\r\n        address indexed processedBy,\r\n        uint256 timestamp\r\n    );\r\n    \r\n    event FLTrainingCompleted(\r\n        uint256 indexed roundNumber,\r\n        uint256 globalAccuracy,\r\n        address indexed triggeredBy,\r\n        uint256 timestamp\r\n    );\r\n    \r\n    // Modifiers\r\n    modifier onlyRegistered() {\r\n        require(users[msg.sender].exists, \"User not registered\");\r\n        _;\r\n    }\r\n    \r\n    modifier onlyRole(string memory role) {\r\n        require(\r\n            keccak256(bytes(users[msg.sender].role)) == keccak256(bytes(role)),\r\n            \"Unauthorized role\"\r\n        );\r\n        _;\r\n    }\r\n    \r\n    modifier onlyAdmin() {\r\n        require(msg.sender == admin, \"Only admin\");\r\n        _;\r\n    }\r\n    \r\n    // Constructor\r\n    constructor() {\r\n        admin = msg.sender;\r\n        // Register admin\r\n        users[admin] = User({\r\n            username: \"admin\",\r\n            role: \"admin\",\r\n            name: \"System Administrator\",\r\n            walletAddress: admin,\r\n            registeredAt: block.timestamp,\r\n            exists: true\r\n        });\r\n        usernameToAddress[\"admin\"] = admin;\r\n        userAddresses.push(admin);\r\n    }\r\n    \r\n    // ==================== USER MANAGEMENT ====================\r\n    \r\n    function registerUser(\r\n        string memory _username,\r\n        string memory _role,\r\n        string memory _name\r\n    ) public {\r\n        require(!users[msg.sender].exists, \"User already registered\");\r\n        require(usernameToAddress[_username] == address(0), \"Username taken\");\r\n        require(\r\n            keccak256(bytes(_role)) == keccak256(bytes(\"patient\")) ||\r\n            keccak256(bytes(_role)) == keccak256(bytes(\"hospital\")) ||\r\n            keccak256(bytes(_role)) == keccak256(bytes(\"insurance\")),\r\n            \"Invalid role\"\r\n        );\r\n        \r\n        users[msg.sender] = User({\r\n            username: _username,\r\n            role: _role,\r\n            name: _name,\r\n            walletAddress: msg.sender,\r\n            registeredAt: block.timestamp,\r\n            exists: true\r\n        });\r\n        \r\n        usernameToAddress[_username] = msg.sender;\r\n        userAddresses.push(msg.sender);\r\n        \r\n        emit UserRegistered(msg.sender, _username, _role, _name, block.timestamp);\r\n    }\r\n    \r\n    function getUser(address _address) public view returns (\r\n        string memory username,\r\n        string memory role,\r\n        string memory name,\r\n        address walletAddress,\r\n        uint256 registeredAt\r\n    ) {\r\n        require(users[_address].exists, \"User not found\");\r\n        User memory user = users[_address];\r\n        return (user.username, user.role, user.name, user.walletAddress, user.registeredAt);\r\n    }\r\n    \r\n    function getUserByUsername(string memory _username) public view returns (\r\n        address walletAddress,\r\n        string memory role,\r\n        string memory name\r\n    ) {\r\n        address userAddress = usernameToAddress[_username];\r\n        require(users[userAddress].exists, \"User not found\");\r\n        User memory user = users[userAddress];\r\n        return (user.walletAddress, user.role, user.name);\r\n    }\r\n    \r\n    function getAllUsers() public view returns (address[] memory) {\r\n        return userAddresses;\r\n    }\r\n    \r\n    // ==================== SSI IDENTITY ====================\r\n    \r\n    function createIdentity(\r\n        string memory _did,\r\n        string memory _name,\r\n        string memory _email,\r\n        string memory _idNumber,\r\n        string memory _dateOfBirth\r\n    ) public onlyRegistered onlyRole(\"patient\") {\r\n        require(!identities[_did].exists, \"DID already exists\");\r\n        require(bytes(ownerToDID[msg.sender]).length == 0, \"Identity already created\");\r\n        \r\n        identities[_did] = Identity({\r\n            did: _did,\r\n            name: _name,\r\n            email: _email,\r\n            idNumber: _idNumber,\r\n            dateOfBirth: _dateOfBirth,\r\n            owner: msg.sender,\r\n            isVerified: true,\r\n            createdAt: block.timestamp,\r\n            exists: true\r\n        });\r\n        \r\n        ownerToDID[msg.sender] = _did;\r\n        allDIDs.push(_did);\r\n        \r\n        emit IdentityCreated(_did, msg.sender, _name, block.timestamp);\r\n    }\r\n    \r\n    function verifyIdentity(string memory _did) public view returns (bool) {\r\n        return identities[_did].exists && identities[_did].isVerified;\r\n    }\r\n    \r\n    function getIdentity(string memory _did) public view returns (\r\n        string memory name,\r\n        string memory email,\r\n        address owner,\r\n        bool isVerified,\r\n        uint256 createdAt\r\n    ) {\r\n        require(identities[_did].exists, \"Identity not found\");\r\n        Identity memory identity = identities[_did];\r\n        return (identity.name, identity.email, identity.owner, identity.isVerified, identity.createdAt);\r\n    }\r\n    \r\n    function getMyIdentity() public view returns (\r\n        string memory did,\r\n        string memory name,\r\n        string memory email,\r\n        string memory idNumber,\r\n        string memory dateOfBirth\r\n    ) {\r\n        string memory myDID = ownerToDID[msg.sender];\r\n        require(bytes(myDID).length > 0, \"No identity found\");\r\n        Identity memory identity = identities[myDID];\r\n        return (identity.did, identity.name, identity.email, identity.idNumber, identity.dateOfBirth);\r\n    }\r\n    \r\n    function getAllIdentities() public view returns (string[] memory) {\r\n        return allDIDs;\r\n    }\r\n    \r\n    // ==================== POLICIES ====================\r\n    \r\n    function createPolicy(\r\n        string memory _policyNumber,\r\n        string memory _did,\r\n        string memory _patientName,\r\n        string memory _policyType,\r\n        uint256 _coverageAmount,\r\n        uint256 _premium,\r\n        uint256 _durationMonths,\r\n        string memory _insuranceCompany\r\n    ) public onlyRegistered onlyRole(\"insurance\") {\r\n        require(identities[_did].exists, \"Invalid DID\");\r\n        require(policyNumberToId[_policyNumber] == 0, \"Policy number exists\");\r\n        \r\n        policyCounter++;\r\n        \r\n        policies[policyCounter] = Policy({\r\n            id: policyCounter,\r\n            policyNumber: _policyNumber,\r\n            did: _did,\r\n            patientName: _patientName,\r\n            policyType: _policyType,\r\n            coverageAmount: _coverageAmount,\r\n            premium: _premium,\r\n            durationMonths: _durationMonths,\r\n            createdBy: msg.sender,\r\n            insuranceCompany: _insuranceCompany,\r\n            status: \"ACTIVE\",\r\n            createdAt: block.timestamp,\r\n            exists: true\r\n        });\r\n        \r\n        policyNumberToId[_policyNumber] = policyCounter;\r\n        \r\n        emit PolicyCreated(policyCounter, _policyNumber, _did, msg.sender, _coverageAmount, block.timestamp);\r\n    }\r\n    \r\n    function getPolicy(uint256 _policyId) public view returns (\r\n        string memory policyNumber,\r\n        string memory did,\r\n        string memory patientName,\r\n        string memory policyType,\r\n        uint256 coverageAmount,\r\n        uint256 premium,\r\n        string memory status\r\n    ) {\r\n        require(policies[_policyId].exists, \"Policy not found\");\r\n        Policy memory policy = policies[_policyId];\r\n        return (\r\n            policy.policyNumber,\r\n            policy.did,\r\n            policy.patientName,\r\n            policy.policyType,\r\n            policy.coverageAmount,\r\n            policy.premium,\r\n            policy.status\r\n        );\r\n    }\r\n    \r\n    function getPolicyByNumber(string memory _policyNumber) public view returns (uint256) {\r\n        uint256 policyId = policyNumberToId[_policyNumber];\r\n        require(policyId != 0, \"Policy not found\");\r\n        return policyId;\r\n    }\r\n    \r\n    // ==================== CLAIMS ====================\r\n    \r\n    function submitClaim(\r\n        string memory _claimNumber,\r\n        uint256 _policyId,\r\n        string memory _policyNumber,\r\n        string memory _did,\r\n        string memory _patientName,\r\n        string memory _claimType,\r\n        uint256 _amount,\r\n        string memory _description,\r\n        string memory _hospitalName,\r\n        string memory _diagnosis,\r\n        uint256 _fraudScore,\r\n        bool _isFraudulent,\r\n        string memory _aiDecision,\r\n        string memory _mlFraudType,      // NEW parameter\r\n        uint256 _mlConfidence            // NEW parameter\r\n    ) public onlyRegistered onlyRole(\"hospital\") {\r\n        require(policies[_policyId].exists, \"Invalid policy\");\r\n        require(claimNumberToId[_claimNumber] == 0, \"Claim number exists\");\r\n        \r\n        claimCounter++;\r\n        \r\n        claims[claimCounter] = Claim({\r\n            id: claimCounter,\r\n            claimNumber: _claimNumber,\r\n            policyId: _policyId,\r\n            policyNumber: _policyNumber,\r\n            did: _did,\r\n            patientName: _patientName,\r\n            claimType: _claimType,\r\n            amount: _amount,\r\n            description: _description,\r\n            hospitalName: _hospitalName,\r\n            diagnosis: _diagnosis,\r\n            submittedBy: msg.sender,\r\n            submittedAt: block.timestamp,\r\n            status: \"PENDING\",\r\n            fraudScore: _fraudScore,\r\n            isFraudulent: _isFraudulent,\r\n            aiDecision: _aiDecision,\r\n            mlFraudType: _mlFraudType,      // NEW field\r\n            mlConfidence: _mlConfidence,    // NEW field\r\n            processedAt: 0,\r\n            processedBy: address(0),\r\n            exists: true\r\n        });\r\n        \r\n        claimNumberToId[_claimNumber] = claimCounter;\r\n        \r\n        emit ClaimSubmitted(claimCounter, _claimNumber, _policyId, msg.sender, _amount, _fraudScore, block.timestamp);\r\n    }\r\n    \r\n    function approveClaim(uint256 _claimId) public onlyRegistered onlyRole(\"insurance\") {\r\n        require(claims[_claimId].exists, \"Claim not found\");\r\n        require(\r\n            keccak256(bytes(claims[_claimId].status)) == keccak256(bytes(\"PENDING\")),\r\n            \"Claim not pending\"\r\n        );\r\n        \r\n        // Verify insurance company owns the policy\r\n        uint256 policyId = claims[_claimId].policyId;\r\n        require(policies[policyId].createdBy == msg.sender, \"Not your policy\");\r\n        \r\n        claims[_claimId].status = \"APPROVED\";\r\n        claims[_claimId].processedAt = block.timestamp;\r\n        claims[_claimId].processedBy = msg.sender;\r\n        \r\n        emit ClaimProcessed(_claimId, \"APPROVED\", msg.sender, block.timestamp);\r\n    }\r\n    \r\n    function rejectClaim(uint256 _claimId) public onlyRegistered onlyRole(\"insurance\") {\r\n        require(claims[_claimId].exists, \"Claim not found\");\r\n        require(\r\n            keccak256(bytes(claims[_claimId].status)) == keccak256(bytes(\"PENDING\")),\r\n            \"Claim not pending\"\r\n        );\r\n        \r\n        uint256 policyId = claims[_claimId].policyId;\r\n        require(policies[policyId].createdBy == msg.sender, \"Not your policy\");\r\n        \r\n        claims[_claimId].status = \"REJECTED\";\r\n        claims[_claimId].processedAt = block.timestamp;\r\n        claims[_claimId].processedBy = msg.sender;\r\n        \r\n        emit ClaimProcessed(_claimId, \"REJECTED\", msg.sender, block.timestamp);\r\n    }\r\n    \r\n    function getClaim(uint256 _claimId) public view returns (\r\n        string memory claimNumber,\r\n        string memory patientName,\r\n        string memory claimType,\r\n        uint256 amount,\r\n        string memory status,\r\n        uint256 fraudScore,\r\n        bool isFraudulent,\r\n        string memory mlFraudType,\r\n        uint256 mlConfidence\r\n    ) {\r\n        require(claims[_claimId].exists, \"Claim not found\");\r\n        Claim memory claim = claims[_claimId];\r\n        return (\r\n            claim.claimNumber,\r\n            claim.patientName,\r\n            claim.claimType,\r\n            claim.amount,\r\n            claim.status,\r\n            claim.fraudScore,\r\n            claim.isFraudulent,\r\n            claim.mlFraudType,\r\n            claim.mlConfidence\r\n        );\r\n    }\r\n    // ==================== FEDERATED LEARNING ====================\r\n    \r\n    function recordTrainingRound(\r\n        uint256 _globalAccuracy,\r\n        uint256 _nodesParticipated,\r\n        uint256 _totalSamples\r\n    ) public onlyRegistered onlyRole(\"insurance\") {\r\n        trainingRoundCounter++;\r\n        \r\n        trainingRounds[trainingRoundCounter] = TrainingRound({\r\n            roundNumber: trainingRoundCounter,\r\n            globalAccuracy: _globalAccuracy,\r\n            nodesParticipated: _nodesParticipated,\r\n            totalSamples: _totalSamples,\r\n            timestamp: block.timestamp,\r\n            triggeredBy: msg.sender\r\n        });\r\n        \r\n        emit FLTrainingCompleted(trainingRoundCounter, _globalAccuracy, msg.sender, block.timestamp);\r\n    }\r\n    \r\n    function getTrainingRound(uint256 _roundNumber) public view returns (\r\n        uint256 globalAccuracy,\r\n        uint256 nodesParticipated,\r\n        uint256 totalSamples,\r\n        uint256 timestamp\r\n    ) {\r\n        TrainingRound memory round = trainingRounds[_roundNumber];\r\n        return (round.globalAccuracy, round.nodesParticipated, round.totalSamples, round.timestamp);\r\n    }\r\n    \r\n    // ==================== STATISTICS ====================\r\n    \r\n    function getTotalCounts() public view returns (\r\n        uint256 totalUsers,\r\n        uint256 totalIdentities,\r\n        uint256 totalPolicies,\r\n        uint256 totalClaims,\r\n        uint256 totalTrainingRounds\r\n    ) {\r\n        return (\r\n            userAddresses.length,\r\n            allDIDs.length,\r\n            policyCounter,\r\n            claimCounter,\r\n            trainingRoundCounter\r\n        );\r\n    }\r\n}",
  "sourcePath": "D:\\varshini songs\\html\\projects\\blockchain - Copy\\blockchain\\contracts\\InsuranceClaim.sol",
  "compiler": {
    "name": "solc",
    "version": "0.8.19+commit.7dd6d404.Emscripten.clang"
  },
  "schemaVersion": "3.4.16",
  "updatedAt": "2025-11-10T07:01:25.224Z",
  "networkType": "ethereum",
  "devdoc": {
    "kind": "dev",
    "methods": {},
    "version": 1
  },
  "userdoc": {
    "kind": "user",
    "methods": {},
    "version": 1
  }
}